{
  "address": "0xDc64a140Aa3E981100a9becA4E685f962f0cF6C9",
  "abi": [
    {
      "inputs": [],
      "stateMutability": "nonpayable",
      "type": "constructor"
    },
    {
      "inputs": [
        {
          "internalType": "address",
          "name": "spender",
          "type": "address"
        },
        {
          "internalType": "uint256",
          "name": "allowance",
          "type": "uint256"
        },
        {
          "internalType": "uint256",
          "name": "needed",
          "type": "uint256"
        }
      ],
      "name": "ERC20InsufficientAllowance",
      "type": "error"
    },
    {
      "inputs": [
        {
          "internalType": "address",
          "name": "sender",
          "type": "address"
        },
        {
          "internalType": "uint256",
          "name": "balance",
          "type": "uint256"
        },
        {
          "internalType": "uint256",
          "name": "needed",
          "type": "uint256"
        }
      ],
      "name": "ERC20InsufficientBalance",
      "type": "error"
    },
    {
      "inputs": [
        {
          "internalType": "address",
          "name": "approver",
          "type": "address"
        }
      ],
      "name": "ERC20InvalidApprover",
      "type": "error"
    },
    {
      "inputs": [
        {
          "internalType": "address",
          "name": "receiver",
          "type": "address"
        }
      ],
      "name": "ERC20InvalidReceiver",
      "type": "error"
    },
    {
      "inputs": [
        {
          "internalType": "address",
          "name": "sender",
          "type": "address"
        }
      ],
      "name": "ERC20InvalidSender",
      "type": "error"
    },
    {
      "inputs": [
        {
          "internalType": "address",
          "name": "spender",
          "type": "address"
        }
      ],
      "name": "ERC20InvalidSpender",
      "type": "error"
    },
    {
      "anonymous": false,
      "inputs": [
        {
          "indexed": true,
          "internalType": "address",
          "name": "owner",
          "type": "address"
        },
        {
          "indexed": true,
          "internalType": "address",
          "name": "spender",
          "type": "address"
        },
        {
          "indexed": false,
          "internalType": "uint256",
          "name": "value",
          "type": "uint256"
        }
      ],
      "name": "Approval",
      "type": "event"
    },
    {
      "anonymous": false,
      "inputs": [
        {
          "indexed": true,
          "internalType": "address",
          "name": "from",
          "type": "address"
        },
        {
          "indexed": true,
          "internalType": "address",
          "name": "to",
          "type": "address"
        },
        {
          "indexed": false,
          "internalType": "uint256",
          "name": "value",
          "type": "uint256"
        }
      ],
      "name": "Transfer",
      "type": "event"
    },
    {
      "inputs": [
        {
          "internalType": "address",
          "name": "_tokenA",
          "type": "address"
        },
        {
          "internalType": "address",
          "name": "_tokenB",
          "type": "address"
        },
        {
          "internalType": "uint256",
          "name": "amountADesired",
          "type": "uint256"
        },
        {
          "internalType": "uint256",
          "name": "amountBDesired",
          "type": "uint256"
        },
        {
          "internalType": "uint256",
          "name": "amountAMin",
          "type": "uint256"
        },
        {
          "internalType": "uint256",
          "name": "amountBMin",
          "type": "uint256"
        },
        {
          "internalType": "address",
          "name": "to",
          "type": "address"
        },
        {
          "internalType": "uint256",
          "name": "deadline",
          "type": "uint256"
        }
      ],
      "name": "addLiquidity",
      "outputs": [
        {
          "internalType": "uint256",
          "name": "amountA",
          "type": "uint256"
        },
        {
          "internalType": "uint256",
          "name": "amountB",
          "type": "uint256"
        },
        {
          "internalType": "uint256",
          "name": "liquidity",
          "type": "uint256"
        }
      ],
      "stateMutability": "nonpayable",
      "type": "function"
    },
    {
      "inputs": [
        {
          "internalType": "address",
          "name": "owner",
          "type": "address"
        },
        {
          "internalType": "address",
          "name": "spender",
          "type": "address"
        }
      ],
      "name": "allowance",
      "outputs": [
        {
          "internalType": "uint256",
          "name": "",
          "type": "uint256"
        }
      ],
      "stateMutability": "view",
      "type": "function"
    },
    {
      "inputs": [
        {
          "internalType": "address",
          "name": "spender",
          "type": "address"
        },
        {
          "internalType": "uint256",
          "name": "value",
          "type": "uint256"
        }
      ],
      "name": "approve",
      "outputs": [
        {
          "internalType": "bool",
          "name": "",
          "type": "bool"
        }
      ],
      "stateMutability": "nonpayable",
      "type": "function"
    },
    {
      "inputs": [
        {
          "internalType": "address",
          "name": "account",
          "type": "address"
        }
      ],
      "name": "balanceOf",
      "outputs": [
        {
          "internalType": "uint256",
          "name": "",
          "type": "uint256"
        }
      ],
      "stateMutability": "view",
      "type": "function"
    },
    {
      "inputs": [],
      "name": "decimals",
      "outputs": [
        {
          "internalType": "uint8",
          "name": "",
          "type": "uint8"
        }
      ],
      "stateMutability": "view",
      "type": "function"
    },
    {
      "inputs": [
        {
          "internalType": "uint256",
          "name": "amountIn",
          "type": "uint256"
        },
        {
          "internalType": "uint256",
          "name": "reserveIn",
          "type": "uint256"
        },
        {
          "internalType": "uint256",
          "name": "reserveOut",
          "type": "uint256"
        }
      ],
      "name": "getAmountOut",
      "outputs": [
        {
          "internalType": "uint256",
          "name": "amountOut",
          "type": "uint256"
        }
      ],
      "stateMutability": "pure",
      "type": "function"
    },
    {
      "inputs": [
        {
          "internalType": "address",
          "name": "_tokenA",
          "type": "address"
        },
        {
          "internalType": "address",
          "name": "_tokenB",
          "type": "address"
        }
      ],
      "name": "getPrice",
      "outputs": [
        {
          "internalType": "uint256",
          "name": "price",
          "type": "uint256"
        }
      ],
      "stateMutability": "view",
      "type": "function"
    },
    {
      "inputs": [],
      "name": "name",
      "outputs": [
        {
          "internalType": "string",
          "name": "",
          "type": "string"
        }
      ],
      "stateMutability": "view",
      "type": "function"
    },
    {
      "inputs": [
        {
          "internalType": "address",
          "name": "_tokenA",
          "type": "address"
        },
        {
          "internalType": "address",
          "name": "_tokenB",
          "type": "address"
        },
        {
          "internalType": "uint256",
          "name": "liquidity",
          "type": "uint256"
        },
        {
          "internalType": "uint256",
          "name": "amountAMin",
          "type": "uint256"
        },
        {
          "internalType": "uint256",
          "name": "amountBMin",
          "type": "uint256"
        },
        {
          "internalType": "address",
          "name": "to",
          "type": "address"
        },
        {
          "internalType": "uint256",
          "name": "deadline",
          "type": "uint256"
        }
      ],
      "name": "removeLiquidity",
      "outputs": [
        {
          "internalType": "uint256",
          "name": "amountA",
          "type": "uint256"
        },
        {
          "internalType": "uint256",
          "name": "amountB",
          "type": "uint256"
        }
      ],
      "stateMutability": "nonpayable",
      "type": "function"
    },
    {
      "inputs": [],
      "name": "reserveA",
      "outputs": [
        {
          "internalType": "uint128",
          "name": "",
          "type": "uint128"
        }
      ],
      "stateMutability": "view",
      "type": "function"
    },
    {
      "inputs": [],
      "name": "reserveB",
      "outputs": [
        {
          "internalType": "uint128",
          "name": "",
          "type": "uint128"
        }
      ],
      "stateMutability": "view",
      "type": "function"
    },
    {
      "inputs": [
        {
          "internalType": "uint256",
          "name": "amountIn",
          "type": "uint256"
        },
        {
          "internalType": "uint256",
          "name": "amountOutMin",
          "type": "uint256"
        },
        {
          "internalType": "address[]",
          "name": "path",
          "type": "address[]"
        },
        {
          "internalType": "address",
          "name": "to",
          "type": "address"
        },
        {
          "internalType": "uint256",
          "name": "deadline",
          "type": "uint256"
        }
      ],
      "name": "swapExactTokensForTokens",
      "outputs": [],
      "stateMutability": "nonpayable",
      "type": "function"
    },
    {
      "inputs": [],
      "name": "symbol",
      "outputs": [
        {
          "internalType": "string",
          "name": "",
          "type": "string"
        }
      ],
      "stateMutability": "view",
      "type": "function"
    },
    {
      "inputs": [],
      "name": "tokenA",
      "outputs": [
        {
          "internalType": "address",
          "name": "",
          "type": "address"
        }
      ],
      "stateMutability": "view",
      "type": "function"
    },
    {
      "inputs": [],
      "name": "tokenB",
      "outputs": [
        {
          "internalType": "address",
          "name": "",
          "type": "address"
        }
      ],
      "stateMutability": "view",
      "type": "function"
    },
    {
      "inputs": [],
      "name": "totalSupply",
      "outputs": [
        {
          "internalType": "uint256",
          "name": "",
          "type": "uint256"
        }
      ],
      "stateMutability": "view",
      "type": "function"
    },
    {
      "inputs": [
        {
          "internalType": "address",
          "name": "to",
          "type": "address"
        },
        {
          "internalType": "uint256",
          "name": "value",
          "type": "uint256"
        }
      ],
      "name": "transfer",
      "outputs": [
        {
          "internalType": "bool",
          "name": "",
          "type": "bool"
        }
      ],
      "stateMutability": "nonpayable",
      "type": "function"
    },
    {
      "inputs": [
        {
          "internalType": "address",
          "name": "from",
          "type": "address"
        },
        {
          "internalType": "address",
          "name": "to",
          "type": "address"
        },
        {
          "internalType": "uint256",
          "name": "value",
          "type": "uint256"
        }
      ],
      "name": "transferFrom",
      "outputs": [
        {
          "internalType": "bool",
          "name": "",
          "type": "bool"
        }
      ],
      "stateMutability": "nonpayable",
      "type": "function"
    }
  ],
  "transactionHash": "0xb060031566718f2893decc0089304aff59ee714c04ed82a0722ddb1e29e73ab2",
  "args": [],
  "numDeployments": 1,
  "solcInputHash": "b4fb066b67a6a0a0b3c48db873adbaa2",
  "bytecode": "0x60806040523480156200001157600080fd5b506040518060400160405280601381526020017f53696d706c6553776170204c5020546f6b656e0000000000000000000000000081525060405180604001604052806004815260200163053534c560e41b815250816003908162000076919062000133565b50600462000085828262000133565b505050620001ff565b634e487b7160e01b600052604160045260246000fd5b600181811c90821680620000b957607f821691505b602082108103620000da57634e487b7160e01b600052602260045260246000fd5b50919050565b601f8211156200012e57600081815260208120601f850160051c81016020861015620001095750805b601f850160051c820191505b818110156200012a5782815560010162000115565b5050505b505050565b81516001600160401b038111156200014f576200014f6200008e565b6200016781620001608454620000a4565b84620000e0565b602080601f8311600181146200019f5760008415620001865750858301515b600019600386901b1c1916600185901b1785556200012a565b600085815260208120601f198616915b82811015620001d057888601518255948401946001909101908401620001af565b5085821015620001ef5787850151600019600388901b60f8161c191681555b5050505050600190811b01905550565b6119ea806200020f6000396000f3fe608060405234801561001057600080fd5b50600436106101165760003560e01c80635f64b55b116100a2578063ac41865a11610071578063ac41865a1461026c578063baa2abde1461027f578063dc5fa6c5146102a7578063dd62ed3e146102ba578063e8e33700146102f357600080fd5b80635f64b55b1461021557806370a082311461022857806395d89b4114610251578063a9059cbb1461025957600080fd5b806318160ddd116100e957806318160ddd146101a457806319e36f3b146101ac57806323b872dd146101de578063313ce567146101f157806338ed17391461020057600080fd5b8063054d50d41461011b57806306fdde0314610141578063095ea7b3146101565780630fc63d1014610179575b600080fd5b61012e6101293660046115ba565b610321565b6040519081526020015b60405180910390f35b6101496103d7565b60405161013891906115e6565b61016961016436600461164b565b610469565b6040519015158152602001610138565b60055461018c906001600160a01b031681565b6040516001600160a01b039091168152602001610138565b60025461012e565b6007546101c690600160801b90046001600160801b031681565b6040516001600160801b039091168152602001610138565b6101696101ec366004611675565b610483565b60405160128152602001610138565b61021361020e3660046116b1565b6104a7565b005b60065461018c906001600160a01b031681565b61012e610236366004611753565b6001600160a01b031660009081526020819052604090205490565b6101496107f7565b61016961026736600461164b565b610806565b61012e61027a36600461176e565b610814565b61029261028d3660046117a1565b61092c565b60408051928352602083019190915201610138565b6007546101c6906001600160801b031681565b61012e6102c836600461176e565b6001600160a01b03918216600090815260016020908152604080832093909416825291909152205490565b61030661030136600461180b565b610c1d565b60408051938452602084019290925290820152606001610138565b60008084116103645760405162461bcd60e51b815260206004820152600a60248201526916995c9bc81a5b9c1d5d60b21b60448201526064015b60405180910390fd5b6000831180156103745750600082115b6103b15760405162461bcd60e51b815260206004820152600e60248201526d456d70747920726573657276657360901b604482015260640161035b565b6103bb8484611895565b6103c583866118a8565b6103cf91906118bf565b949350505050565b6060600380546103e6906118e1565b80601f0160208091040260200160405190810160405280929190818152602001828054610412906118e1565b801561045f5780601f106104345761010080835404028352916020019161045f565b820191906000526020600020905b81548152906001019060200180831161044257829003601f168201915b5050505050905090565b6000336104778185856110b4565b60019150505b92915050565b6000336104918582856110c6565b61049c858585611144565b506001949350505050565b804211156104c75760405162461bcd60e51b815260040161035b90611915565b600086116105045760405162461bcd60e51b815260206004820152600a60248201526916995c9bc81a5b9c1d5d60b21b604482015260640161035b565b600283146105435760405162461bcd60e51b815260206004820152600c60248201526b092dcecc2d8d2c840e0c2e8d60a31b604482015260640161035b565b60008484600081811061055857610558611936565b905060200201602081019061056d9190611753565b905060008585600181811061058457610584611936565b90506020020160208101906105999190611753565b6005549091506001600160a01b0383811691161480156105c657506006546001600160a01b038281169116145b806105f657506006546001600160a01b0383811691161480156105f657506005546001600160a01b038281169116145b6106355760405162461bcd60e51b815260206004820152601060248201526f2ab739bab83837b93a32b2103830b4b960811b604482015260640161035b565b60055460009081906001600160a01b0385811691161461066a576007546001600160801b03600160801b820481169116610682565b6007546001600160801b0380821691600160801b9004165b9092509050600061069c8b6001600160801b038516611895565b6106af6001600160801b0384168d6118a8565b6106b991906118bf565b9050898110156106f65760405162461bcd60e51b8152602060048201526008602482015267536c69707061676560c01b604482015260640161035b565b6040516323b872dd60e01b8152336004820152306024820152604481018c90526001600160a01b038616906323b872dd906064016020604051808303816000875af1158015610749573d6000803e3d6000fd5b505050506040513d601f19601f8201168201806040525081019061076d919061194c565b5060405163a9059cbb60e01b81526001600160a01b0388811660048301526024820183905285169063a9059cbb906044016020604051808303816000875af11580156107bd573d6000803e3d6000fd5b505050506040513d601f19601f820116820180604052508101906107e1919061194c565b506107ea6111a3565b5050505050505050505050565b6060600480546103e6906118e1565b600033610477818585611144565b600554600090839083906001600160a01b031615801561083d57506006546001600160a01b0316155b8061086d57506005546001600160a01b03838116911614801561086d57506006546001600160a01b038281169116145b6108895760405162461bcd60e51b815260040161035b9061196e565b6007546001600160801b0316158015906108b45750600754600160801b90046001600160801b031615155b6108ef5760405162461bcd60e51b815260206004820152600c60248201526b4e6f206c697175696469747960a01b604482015260640161035b565b6007546001600160801b038082169161091991600160801b90910416670de0b6b3a76400006118a8565b61092391906118bf565b95945050505050565b6005546000908190899089906001600160a01b031615801561095757506006546001600160a01b0316155b8061098757506005546001600160a01b03838116911614801561098757506006546001600160a01b038281169116145b6109a35760405162461bcd60e51b815260040161035b9061196e565b844211156109c35760405162461bcd60e51b815260040161035b90611915565b6000891180156109e25750336000908152602081905260409020548911155b610a225760405162461bcd60e51b8152602060048201526011602482015270496e76616c6964206c697175696469747960781b604482015260640161035b565b6000610a2d60025490565b6007549091508190610a48906001600160801b03168c6118a8565b610a5291906118bf565b6007549095508190610a7490600160801b90046001600160801b03168c6118a8565b610a7e91906118bf565b935088851015610ac65760405162461bcd60e51b8152602060048201526013602482015272536c6970706167653a204120746f6f206c6f7760681b604482015260640161035b565b87841015610b0c5760405162461bcd60e51b8152602060048201526013602482015272536c6970706167653a204220746f6f206c6f7760681b604482015260640161035b565b610b16338b6112c3565b60055460405163a9059cbb60e01b81526001600160a01b038981166004830152602482018890529091169063a9059cbb906044016020604051808303816000875af1158015610b69573d6000803e3d6000fd5b505050506040513d601f19601f82011682018060405250810190610b8d919061194c565b5060065460405163a9059cbb60e01b81526001600160a01b038981166004830152602482018790529091169063a9059cbb906044016020604051808303816000875af1158015610be1573d6000803e3d6000fd5b505050506040513d601f19601f82011682018060405250810190610c05919061194c565b50610c0e6111a3565b50505097509795505050505050565b600554600090819081908b908b906001600160a01b0316158015610c4a57506006546001600160a01b0316155b80610c7a57506005546001600160a01b038381169116148015610c7a57506006546001600160a01b038281169116145b610c965760405162461bcd60e51b815260040161035b9061196e565b85421115610cb65760405162461bcd60e51b815260040161035b90611915565b6005546001600160a01b0316158015610cd857506006546001600160a01b0316155b15610d82578b6001600160a01b03168d6001600160a01b031603610d335760405162461bcd60e51b81526020600482015260126024820152712a37b5b2b7399036bab9ba103234b33332b960711b604482015260640161035b565b8c600560006101000a8154816001600160a01b0302191690836001600160a01b031602179055508b600660006101000a8154816001600160a01b0302191690836001600160a01b031602179055505b6007546001600160801b0316158015610dab5750600754600160801b90046001600160801b0316155b15610dbb578a9450899350610ec1565b6007546000906001600160801b0380821691610de091600160801b909104168e6118a8565b610dea91906118bf565b90508a8111610e445788811015610e395760405162461bcd60e51b8152602060048201526013602482015272536c6970706167653a204220746f6f206c6f7760681b604482015260640161035b565b8b9550809450610ebf565b6007546000906001600160801b03600160801b8204811691610e6791168e6118a8565b610e7191906118bf565b90508a811015610eb95760405162461bcd60e51b8152602060048201526013602482015272536c6970706167653a204120746f6f206c6f7760681b604482015260640161035b565b95508a94505b505b6005546040516323b872dd60e01b8152336004820152306024820152604481018790526001600160a01b03909116906323b872dd906064016020604051808303816000875af1158015610f18573d6000803e3d6000fd5b505050506040513d601f19601f82011682018060405250810190610f3c919061194c565b506006546040516323b872dd60e01b8152336004820152306024820152604481018690526001600160a01b03909116906323b872dd906064016020604051808303816000875af1158015610f94573d6000803e3d6000fd5b505050506040513d601f19601f82011682018060405250810190610fb8919061194c565b50600254600003610fdc57610fd5610fd085876118a8565b6112fd565b9250611042565b60075461103f906001600160801b0316610ff560025490565b610fff90886118a8565b61100991906118bf565b6007546001600160801b03600160801b9091041661102660025490565b61103090886118a8565b61103a91906118bf565b61136d565b92505b600083116110925760405162461bcd60e51b815260206004820152601d60248201527f496e73756666696369656e74206c6971756964697479206d696e746564000000604482015260640161035b565b61109c8784611385565b6110a46111a3565b5050985098509895505050505050565b6110c183838360016113bb565b505050565b6001600160a01b03838116600090815260016020908152604080832093861683529290522054600019811461113e578181101561112f57604051637dc7a0d960e11b81526001600160a01b0384166004820152602481018290526044810183905260640161035b565b61113e848484840360006113bb565b50505050565b6001600160a01b03831661116e57604051634b637e8f60e11b81526000600482015260240161035b565b6001600160a01b0382166111985760405163ec442f0560e01b81526000600482015260240161035b565b6110c1838383611490565b6005546040516370a0823160e01b81523060048201526001600160a01b03909116906370a0823190602401602060405180830381865afa1580156111eb573d6000803e3d6000fd5b505050506040513d601f19601f8201168201806040525081019061120f919061199b565b600780546fffffffffffffffffffffffffffffffff19166001600160801b03929092169190911790556006546040516370a0823160e01b81523060048201526001600160a01b03909116906370a0823190602401602060405180830381865afa158015611280573d6000803e3d6000fd5b505050506040513d601f19601f820116820180604052508101906112a4919061199b565b600780546001600160801b03928316600160801b029216919091179055565b6001600160a01b0382166112ed57604051634b637e8f60e11b81526000600482015260240161035b565b6112f982600083611490565b5050565b6000600382111561135e57508060006113176002836118bf565b611322906001611895565b90505b818110156113585790508060028161133d81866118bf565b6113479190611895565b61135191906118bf565b9050611325565b50919050565b8115611368575060015b919050565b600081831061137c578161137e565b825b9392505050565b6001600160a01b0382166113af5760405163ec442f0560e01b81526000600482015260240161035b565b6112f960008383611490565b6001600160a01b0384166113e55760405163e602df0560e01b81526000600482015260240161035b565b6001600160a01b03831661140f57604051634a1406b160e11b81526000600482015260240161035b565b6001600160a01b038085166000908152600160209081526040808320938716835292905220829055801561113e57826001600160a01b0316846001600160a01b03167f8c5be1e5ebec7d5bd14f71427d1e84f3dd0314c0f7b2291e5b200ac8c7c3b9258460405161148291815260200190565b60405180910390a350505050565b6001600160a01b0383166114bb5780600260008282546114b09190611895565b9091555061152d9050565b6001600160a01b0383166000908152602081905260409020548181101561150e5760405163391434e360e21b81526001600160a01b0385166004820152602481018290526044810183905260640161035b565b6001600160a01b03841660009081526020819052604090209082900390555b6001600160a01b03821661154957600280548290039055611568565b6001600160a01b03821660009081526020819052604090208054820190555b816001600160a01b0316836001600160a01b03167fddf252ad1be2c89b69c2b068fc378daa952ba7f163c4a11628f55a4df523b3ef836040516115ad91815260200190565b60405180910390a3505050565b6000806000606084860312156115cf57600080fd5b505081359360208301359350604090920135919050565b600060208083528351808285015260005b81811015611613578581018301518582016040015282016115f7565b506000604082860101526040601f19601f8301168501019250505092915050565b80356001600160a01b038116811461136857600080fd5b6000806040838503121561165e57600080fd5b61166783611634565b946020939093013593505050565b60008060006060848603121561168a57600080fd5b61169384611634565b92506116a160208501611634565b9150604084013590509250925092565b60008060008060008060a087890312156116ca57600080fd5b8635955060208701359450604087013567ffffffffffffffff808211156116f057600080fd5b818901915089601f83011261170457600080fd5b81358181111561171357600080fd5b8a60208260051b850101111561172857600080fd5b60208301965080955050505061174060608801611634565b9150608087013590509295509295509295565b60006020828403121561176557600080fd5b61137e82611634565b6000806040838503121561178157600080fd5b61178a83611634565b915061179860208401611634565b90509250929050565b600080600080600080600060e0888a0312156117bc57600080fd5b6117c588611634565b96506117d360208901611634565b95506040880135945060608801359350608088013592506117f660a08901611634565b915060c0880135905092959891949750929550565b600080600080600080600080610100898b03121561182857600080fd5b61183189611634565b975061183f60208a01611634565b965060408901359550606089013594506080890135935060a0890135925061186960c08a01611634565b915060e089013590509295985092959890939650565b634e487b7160e01b600052601160045260246000fd5b8082018082111561047d5761047d61187f565b808202811582820484141761047d5761047d61187f565b6000826118dc57634e487b7160e01b600052601260045260246000fd5b500490565b600181811c908216806118f557607f821691505b60208210810361135857634e487b7160e01b600052602260045260246000fd5b602080825260079082015266115e1c1a5c995960ca1b604082015260600190565b634e487b7160e01b600052603260045260246000fd5b60006020828403121561195e57600080fd5b8151801515811461137e57600080fd5b6020808252601390820152720a8ded6cadc40e0c2d2e440dad2e6dac2e8c6d606b1b604082015260600190565b6000602082840312156119ad57600080fd5b505191905056fea26469706673582212204d8b35774b1b824c16075afc5a6ea653597e0d8ef2bfcfb19a18260658222c4464736f6c63430008140033",
  "devdoc": {
    "details": "Based on Uniswap v2 principles. Issues LP tokens to liquidity providers.",
    "errors": {
      "ERC20InsufficientAllowance(address,uint256,uint256)": [
        {
          "details": "Indicates a failure with the `spender`s `allowance`. Used in transfers.",
          "params": {
            "allowance": "Amount of tokens a `spender` is allowed to operate with.",
            "needed": "Minimum amount required to perform a transfer.",
            "spender": "Address that may be allowed to operate on tokens without being their owner."
          }
        }
      ],
      "ERC20InsufficientBalance(address,uint256,uint256)": [
        {
          "details": "Indicates an error related to the current `balance` of a `sender`. Used in transfers.",
          "params": {
            "balance": "Current balance for the interacting account.",
            "needed": "Minimum amount required to perform a transfer.",
            "sender": "Address whose tokens are being transferred."
          }
        }
      ],
      "ERC20InvalidApprover(address)": [
        {
          "details": "Indicates a failure with the `approver` of a token to be approved. Used in approvals.",
          "params": {
            "approver": "Address initiating an approval operation."
          }
        }
      ],
      "ERC20InvalidReceiver(address)": [
        {
          "details": "Indicates a failure with the token `receiver`. Used in transfers.",
          "params": {
            "receiver": "Address to which tokens are being transferred."
          }
        }
      ],
      "ERC20InvalidSender(address)": [
        {
          "details": "Indicates a failure with the token `sender`. Used in transfers.",
          "params": {
            "sender": "Address whose tokens are being transferred."
          }
        }
      ],
      "ERC20InvalidSpender(address)": [
        {
          "details": "Indicates a failure with the `spender` to be approved. Used in approvals.",
          "params": {
            "spender": "Address that may be allowed to operate on tokens without being their owner."
          }
        }
      ]
    },
    "events": {
      "Approval(address,address,uint256)": {
        "details": "Emitted when the allowance of a `spender` for an `owner` is set by a call to {approve}. `value` is the new allowance."
      },
      "Transfer(address,address,uint256)": {
        "details": "Emitted when `value` tokens are moved from one account (`from`) to another (`to`). Note that `value` may be zero."
      }
    },
    "kind": "dev",
    "methods": {
      "allowance(address,address)": {
        "details": "See {IERC20-allowance}."
      },
      "approve(address,uint256)": {
        "details": "See {IERC20-approve}. NOTE: If `value` is the maximum `uint256`, the allowance is not updated on `transferFrom`. This is semantically equivalent to an infinite approval. Requirements: - `spender` cannot be the zero address."
      },
      "balanceOf(address)": {
        "details": "See {IERC20-balanceOf}."
      },
      "decimals()": {
        "details": "Returns the number of decimals used to get its user representation. For example, if `decimals` equals `2`, a balance of `505` tokens should be displayed to a user as `5.05` (`505 / 10 ** 2`). Tokens usually opt for a value of 18, imitating the relationship between Ether and Wei. This is the default value returned by this function, unless it's overridden. NOTE: This information is only used for _display_ purposes: it in no way affects any of the arithmetic of the contract, including {IERC20-balanceOf} and {IERC20-transfer}."
      },
      "name()": {
        "details": "Returns the name of the token."
      },
      "symbol()": {
        "details": "Returns the symbol of the token, usually a shorter version of the name."
      },
      "totalSupply()": {
        "details": "See {IERC20-totalSupply}."
      },
      "transfer(address,uint256)": {
        "details": "See {IERC20-transfer}. Requirements: - `to` cannot be the zero address. - the caller must have a balance of at least `value`."
      },
      "transferFrom(address,address,uint256)": {
        "details": "See {IERC20-transferFrom}. Emits an {Approval} event indicating the updated allowance. This is not required by the EIP. See the note at the beginning of {ERC20}. NOTE: Does not update the allowance if the current allowance is the maximum `uint256`. Requirements: - `from` and `to` cannot be the zero address. - `from` must have a balance of at least `value`. - the caller must have allowance for ``from``'s tokens of at least `value`."
      }
    },
    "title": "SimpleSwap",
    "version": 1
  },
  "userdoc": {
    "kind": "user",
    "methods": {
      "addLiquidity(address,address,uint256,uint256,uint256,uint256,address,uint256)": {
        "notice": "Adds liquidity to the pool and mints LP tokens to the user."
      },
      "constructor": {
        "notice": "Deploys the SimpleSwap contract and initializes the LP token."
      },
      "getAmountOut(uint256,uint256,uint256)": {
        "notice": "Computes the amount of output tokens for a given input amount using constant product formula."
      },
      "getPrice(address,address)": {
        "notice": "Returns the current spot price of tokenA in terms of tokenB."
      },
      "removeLiquidity(address,address,uint256,uint256,uint256,address,uint256)": {
        "notice": "Burns LP tokens and returns the user's share of underlying tokens."
      },
      "swapExactTokensForTokens(uint256,uint256,address[],address,uint256)": {
        "notice": "Swaps a fixed amount of input token for the maximum possible output token."
      }
    },
    "notice": "Swap contract for a token pair with LP token minting and burning.",
    "version": 1
  },
  "storageLayout": {
    "storage": [
      {
        "astId": 159,
        "contract": "contracts/SimpleSwap.sol:SimpleSwap",
        "label": "_balances",
        "offset": 0,
        "slot": "0",
        "type": "t_mapping(t_address,t_uint256)"
      },
      {
        "astId": 165,
        "contract": "contracts/SimpleSwap.sol:SimpleSwap",
        "label": "_allowances",
        "offset": 0,
        "slot": "1",
        "type": "t_mapping(t_address,t_mapping(t_address,t_uint256))"
      },
      {
        "astId": 167,
        "contract": "contracts/SimpleSwap.sol:SimpleSwap",
        "label": "_totalSupply",
        "offset": 0,
        "slot": "2",
        "type": "t_uint256"
      },
      {
        "astId": 169,
        "contract": "contracts/SimpleSwap.sol:SimpleSwap",
        "label": "_name",
        "offset": 0,
        "slot": "3",
        "type": "t_string_storage"
      },
      {
        "astId": 171,
        "contract": "contracts/SimpleSwap.sol:SimpleSwap",
        "label": "_symbol",
        "offset": 0,
        "slot": "4",
        "type": "t_string_storage"
      },
      {
        "astId": 911,
        "contract": "contracts/SimpleSwap.sol:SimpleSwap",
        "label": "tokenA",
        "offset": 0,
        "slot": "5",
        "type": "t_address"
      },
      {
        "astId": 913,
        "contract": "contracts/SimpleSwap.sol:SimpleSwap",
        "label": "tokenB",
        "offset": 0,
        "slot": "6",
        "type": "t_address"
      },
      {
        "astId": 915,
        "contract": "contracts/SimpleSwap.sol:SimpleSwap",
        "label": "reserveA",
        "offset": 0,
        "slot": "7",
        "type": "t_uint128"
      },
      {
        "astId": 917,
        "contract": "contracts/SimpleSwap.sol:SimpleSwap",
        "label": "reserveB",
        "offset": 16,
        "slot": "7",
        "type": "t_uint128"
      }
    ],
    "types": {
      "t_address": {
        "encoding": "inplace",
        "label": "address",
        "numberOfBytes": "20"
      },
      "t_mapping(t_address,t_mapping(t_address,t_uint256))": {
        "encoding": "mapping",
        "key": "t_address",
        "label": "mapping(address => mapping(address => uint256))",
        "numberOfBytes": "32",
        "value": "t_mapping(t_address,t_uint256)"
      },
      "t_mapping(t_address,t_uint256)": {
        "encoding": "mapping",
        "key": "t_address",
        "label": "mapping(address => uint256)",
        "numberOfBytes": "32",
        "value": "t_uint256"
      },
      "t_string_storage": {
        "encoding": "bytes",
        "label": "string",
        "numberOfBytes": "32"
      },
      "t_uint128": {
        "encoding": "inplace",
        "label": "uint128",
        "numberOfBytes": "16"
      },
      "t_uint256": {
        "encoding": "inplace",
        "label": "uint256",
        "numberOfBytes": "32"
      }
    }
  }
}